{
  "_format": "hh-sol-artifact-1",
  "contractName": "disputeHandler",
  "sourceName": "contracts/disputehandler.sol",
  "abi": [
    {
      "inputs": [
        {
          "internalType": "address",
          "name": "_projectId",
          "type": "address"
        },
        {
          "internalType": "string",
          "name": "_problemDescription",
          "type": "string"
        },
        {
          "internalType": "address[]",
          "name": "_arbiterAddresses",
          "type": "address[]"
        }
      ],
      "stateMutability": "nonpayable",
      "type": "constructor"
    },
    {
      "inputs": [],
      "name": "amountToBePaid",
      "outputs": [
        {
          "internalType": "uint256",
          "name": "",
          "type": "uint256"
        }
      ],
      "stateMutability": "view",
      "type": "function"
    },
    {
      "inputs": [
        {
          "internalType": "address",
          "name": "",
          "type": "address"
        }
      ],
      "name": "arbiters",
      "outputs": [
        {
          "internalType": "bool",
          "name": "",
          "type": "bool"
        }
      ],
      "stateMutability": "view",
      "type": "function"
    },
    {
      "inputs": [],
      "name": "calculateVoteResult",
      "outputs": [],
      "stateMutability": "nonpayable",
      "type": "function"
    },
    {
      "inputs": [],
      "name": "freelancer",
      "outputs": [
        {
          "internalType": "address",
          "name": "",
          "type": "address"
        }
      ],
      "stateMutability": "view",
      "type": "function"
    },
    {
      "inputs": [
        {
          "internalType": "address",
          "name": "",
          "type": "address"
        }
      ],
      "name": "hasVoted",
      "outputs": [
        {
          "internalType": "bool",
          "name": "",
          "type": "bool"
        }
      ],
      "stateMutability": "view",
      "type": "function"
    },
    {
      "inputs": [],
      "name": "owner",
      "outputs": [
        {
          "internalType": "address",
          "name": "",
          "type": "address"
        }
      ],
      "stateMutability": "view",
      "type": "function"
    },
    {
      "inputs": [],
      "name": "problemDescription",
      "outputs": [
        {
          "internalType": "string",
          "name": "",
          "type": "string"
        }
      ],
      "stateMutability": "view",
      "type": "function"
    },
    {
      "inputs": [],
      "name": "projectId",
      "outputs": [
        {
          "internalType": "address",
          "name": "",
          "type": "address"
        }
      ],
      "stateMutability": "view",
      "type": "function"
    },
    {
      "inputs": [],
      "name": "totalVotesAgainst",
      "outputs": [
        {
          "internalType": "uint256",
          "name": "",
          "type": "uint256"
        }
      ],
      "stateMutability": "view",
      "type": "function"
    },
    {
      "inputs": [],
      "name": "totalVotesFor",
      "outputs": [
        {
          "internalType": "uint256",
          "name": "",
          "type": "uint256"
        }
      ],
      "stateMutability": "view",
      "type": "function"
    },
    {
      "inputs": [
        {
          "internalType": "bool",
          "name": "_voteFor",
          "type": "bool"
        }
      ],
      "name": "vote",
      "outputs": [],
      "stateMutability": "nonpayable",
      "type": "function"
    },
    {
      "inputs": [
        {
          "internalType": "address",
          "name": "",
          "type": "address"
        }
      ],
      "name": "votedFor",
      "outputs": [
        {
          "internalType": "bool",
          "name": "",
          "type": "bool"
        }
      ],
      "stateMutability": "view",
      "type": "function"
    },
    {
      "inputs": [],
      "name": "winningBidAmount",
      "outputs": [
        {
          "internalType": "uint256",
          "name": "",
          "type": "uint256"
        }
      ],
      "stateMutability": "view",
      "type": "function"
    }
  ],
  "bytecode": "0x60806040523480156200001157600080fd5b506040516200148038038062001480833981810160405281019062000037919062000366565b33600a60006101000a81548173ffffffffffffffffffffffffffffffffffffffff021916908373ffffffffffffffffffffffffffffffffffffffff160217905550826000806101000a81548173ffffffffffffffffffffffffffffffffffffffff021916908373ffffffffffffffffffffffffffffffffffffffff1602179055508160019080519060200190620000d092919062000173565b5060005b81518110156200016957600160026000848481518110620000fa57620000f96200061a565b5b602002602001015173ffffffffffffffffffffffffffffffffffffffff1673ffffffffffffffffffffffffffffffffffffffff16815260200190815260200160002060006101000a81548160ff021916908315150217905550808062000160906200056e565b915050620000d4565b50505050620006bc565b828054620001819062000502565b90600052602060002090601f016020900481019282620001a55760008555620001f1565b82601f10620001c057805160ff1916838001178555620001f1565b82800160010185558215620001f1579182015b82811115620001f0578251825591602001919060010190620001d3565b5b50905062000200919062000204565b5090565b5b808211156200021f57600081600090555060010162000205565b5090565b60006200023a620002348462000429565b62000400565b9050808382526020820190508285602086028201111562000260576200025f6200067d565b5b60005b85811015620002945781620002798882620002e9565b84526020840193506020830192505060018101905062000263565b5050509392505050565b6000620002b5620002af8462000458565b62000400565b905082815260208101848484011115620002d457620002d362000682565b5b620002e1848285620004cc565b509392505050565b600081519050620002fa81620006a2565b92915050565b600082601f83011262000318576200031762000678565b5b81516200032a84826020860162000223565b91505092915050565b600082601f8301126200034b576200034a62000678565b5b81516200035d8482602086016200029e565b91505092915050565b6000806000606084860312156200038257620003816200068c565b5b60006200039286828701620002e9565b935050602084015167ffffffffffffffff811115620003b657620003b562000687565b5b620003c48682870162000333565b925050604084015167ffffffffffffffff811115620003e857620003e762000687565b5b620003f68682870162000300565b9150509250925092565b60006200040c6200041f565b90506200041a828262000538565b919050565b6000604051905090565b600067ffffffffffffffff82111562000447576200044662000649565b5b602082029050602081019050919050565b600067ffffffffffffffff82111562000476576200047562000649565b5b620004818262000691565b9050602081019050919050565b60006200049b82620004a2565b9050919050565b600073ffffffffffffffffffffffffffffffffffffffff82169050919050565b6000819050919050565b60005b83811015620004ec578082015181840152602081019050620004cf565b83811115620004fc576000848401525b50505050565b600060028204905060018216806200051b57607f821691505b60208210811415620005325762000531620005eb565b5b50919050565b620005438262000691565b810181811067ffffffffffffffff8211171562000565576200056462000649565b5b80604052505050565b60006200057b82620004c2565b91507fffffffffffffffffffffffffffffffffffffffffffffffffffffffffffffffff821415620005b157620005b0620005bc565b5b600182019050919050565b7f4e487b7100000000000000000000000000000000000000000000000000000000600052601160045260246000fd5b7f4e487b7100000000000000000000000000000000000000000000000000000000600052602260045260246000fd5b7f4e487b7100000000000000000000000000000000000000000000000000000000600052603260045260246000fd5b7f4e487b7100000000000000000000000000000000000000000000000000000000600052604160045260246000fd5b600080fd5b600080fd5b600080fd5b600080fd5b600080fd5b6000601f19601f8301169050919050565b620006ad816200048e565b8114620006b957600080fd5b50565b610db480620006cc6000396000f3fe608060405234801561001057600080fd5b50600436106100cf5760003560e01c80638d138e401161008c578063ad6a71fc11610066578063ad6a71fc14610204578063c848e4e714610222578063c9a448a214610240578063f594f13f1461024a576100cf565b80638d138e40146101aa5780638da5cb5b146101c8578063a37dda2c146101e6576100cf565b806309eef43e146100d45780630e883cd5146101045780633fafa127146101225780634b9f5c9814610140578063559405ee1461015c5780637bf2bb101461017a575b600080fd5b6100ee60048036038101906100e991906107f7565b61027a565b6040516100fb919061093b565b60405180910390f35b61010c61029a565b6040516101199190610956565b60405180910390f35b61012a610328565b6040516101379190610920565b60405180910390f35b61015a60048036038101906101559190610824565b61034c565b005b610164610554565b60405161017191906109d8565b60405180910390f35b610194600480360381019061018f91906107f7565b61055a565b6040516101a1919061093b565b60405180910390f35b6101b261057a565b6040516101bf91906109d8565b60405180910390f35b6101d0610580565b6040516101dd9190610920565b60405180910390f35b6101ee6105a6565b6040516101fb9190610920565b60405180910390f35b61020c6105cc565b60405161021991906109d8565b60405180910390f35b61022a6105d2565b60405161023791906109d8565b60405180910390f35b6102486105d8565b005b610264600480360381019061025f91906107f7565b610695565b604051610271919061093b565b60405180910390f35b60036020528060005260406000206000915054906101000a900460ff1681565b600180546102a790610b6b565b80601f01602080910402602001604051908101604052809291908181526020018280546102d390610b6b565b80156103205780601f106102f557610100808354040283529160200191610320565b820191906000526020600020905b81548152906001019060200180831161030357829003601f168201915b505050505081565b60008054906101000a900473ffffffffffffffffffffffffffffffffffffffff1681565b600260003373ffffffffffffffffffffffffffffffffffffffff1673ffffffffffffffffffffffffffffffffffffffff16815260200190815260200160002060009054906101000a900460ff166103d8576040517f08c379a00000000000000000000000000000000000000000000000000000000081526004016103cf906109b8565b60405180910390fd5b600360003373ffffffffffffffffffffffffffffffffffffffff1673ffffffffffffffffffffffffffffffffffffffff16815260200190815260200160002060009054906101000a900460ff1615610465576040517f08c379a000000000000000000000000000000000000000000000000000000000815260040161045c90610998565b60405180910390fd5b6001600360003373ffffffffffffffffffffffffffffffffffffffff1673ffffffffffffffffffffffffffffffffffffffff16815260200190815260200160002060006101000a81548160ff0219169083151502179055508015610538576001600460003373ffffffffffffffffffffffffffffffffffffffff1673ffffffffffffffffffffffffffffffffffffffff16815260200190815260200160002060006101000a81548160ff0219169083151502179055506005600081548092919061052e90610b9d565b9190505550610551565b6006600081548092919061054b90610b9d565b91905055505b50565b60075481565b60026020528060005260406000206000915054906101000a900460ff1681565b60055481565b600a60009054906101000a900473ffffffffffffffffffffffffffffffffffffffff1681565b600960009054906101000a900473ffffffffffffffffffffffffffffffffffffffff1681565b60085481565b60065481565b600a60009054906101000a900473ffffffffffffffffffffffffffffffffffffffff1673ffffffffffffffffffffffffffffffffffffffff163373ffffffffffffffffffffffffffffffffffffffff1614610668576040517f08c379a000000000000000000000000000000000000000000000000000000000815260040161065f90610978565b60405180910390fd5b6000600654600554111561067b57600190505b61068c6005546006546007546106b5565b60088190555050565b60046020528060005260406000206000915054906101000a900460ff1681565b6000808414156106c857600090506107c6565b600083856106d69190610a0f565b905060008414806106f35750836002866106f09190610a65565b10155b1561070157829150506107c6565b83851115610740576064816107169190610a96565b836064876107249190610a96565b61072e9190610a96565b6107389190610a65565b9150506107c6565b838514156107695760648360236107579190610a96565b6107619190610a65565b9150506107c6565b84841180156107835750846002856107819190610a65565b105b156107a957606483600a6107979190610a96565b6107a19190610a65565b9150506107c6565b60648360056107b89190610a96565b6107c29190610a65565b9150505b9392505050565b6000813590506107dc81610d50565b92915050565b6000813590506107f181610d67565b92915050565b60006020828403121561080d5761080c610c73565b5b600061081b848285016107cd565b91505092915050565b60006020828403121561083a57610839610c73565b5b6000610848848285016107e2565b91505092915050565b61085a81610af0565b82525050565b61086981610b02565b82525050565b600061087a826109f3565b61088481856109fe565b9350610894818560208601610b38565b61089d81610c78565b840191505092915050565b60006108b56021836109fe565b91506108c082610c89565b604082019050919050565b60006108d86019836109fe565b91506108e382610cd8565b602082019050919050565b60006108fb6024836109fe565b915061090682610d01565b604082019050919050565b61091a81610b2e565b82525050565b60006020820190506109356000830184610851565b92915050565b60006020820190506109506000830184610860565b92915050565b60006020820190508181036000830152610970818461086f565b905092915050565b60006020820190508181036000830152610991816108a8565b9050919050565b600060208201905081810360008301526109b1816108cb565b9050919050565b600060208201905081810360008301526109d1816108ee565b9050919050565b60006020820190506109ed6000830184610911565b92915050565b600081519050919050565b600082825260208201905092915050565b6000610a1a82610b2e565b9150610a2583610b2e565b9250827fffffffffffffffffffffffffffffffffffffffffffffffffffffffffffffffff03821115610a5a57610a59610be6565b5b828201905092915050565b6000610a7082610b2e565b9150610a7b83610b2e565b925082610a8b57610a8a610c15565b5b828204905092915050565b6000610aa182610b2e565b9150610aac83610b2e565b9250817fffffffffffffffffffffffffffffffffffffffffffffffffffffffffffffffff0483118215151615610ae557610ae4610be6565b5b828202905092915050565b6000610afb82610b0e565b9050919050565b60008115159050919050565b600073ffffffffffffffffffffffffffffffffffffffff82169050919050565b6000819050919050565b60005b83811015610b56578082015181840152602081019050610b3b565b83811115610b65576000848401525b50505050565b60006002820490506001821680610b8357607f821691505b60208210811415610b9757610b96610c44565b5b50919050565b6000610ba882610b2e565b91507fffffffffffffffffffffffffffffffffffffffffffffffffffffffffffffffff821415610bdb57610bda610be6565b5b600182019050919050565b7f4e487b7100000000000000000000000000000000000000000000000000000000600052601160045260246000fd5b7f4e487b7100000000000000000000000000000000000000000000000000000000600052601260045260246000fd5b7f4e487b7100000000000000000000000000000000000000000000000000000000600052602260045260246000fd5b600080fd5b6000601f19601f8301169050919050565b7f4f6e6c79206f776e65722063616e2063616c6c20746869732066756e6374696f60008201527f6e00000000000000000000000000000000000000000000000000000000000000602082015250565b7f417262697465722068617320616c726561647920766f74656400000000000000600082015250565b7f4f6e6c792061726269746572732063616e2063616c6c20746869732066756e6360008201527f74696f6e00000000000000000000000000000000000000000000000000000000602082015250565b610d5981610af0565b8114610d6457600080fd5b50565b610d7081610b02565b8114610d7b57600080fd5b5056fea2646970667358221220827693fb3d0d782683fb6a29bd20c74171c3536cf31ab336b0b1b4397d40ee9864736f6c63430008070033",
  "linkReferences": {},
  "deployedLinkReferences": {}
}