{
  "_format": "hh-sol-artifact-1",
  "contractName": "Escrow",
  "sourceName": "contracts/escrow.sol",
  "abi": [
    {
      "inputs": [
        {
          "internalType": "address",
          "name": "_freelancer",
          "type": "address"
        },
        {
          "internalType": "uint256",
          "name": "_projectemployerStake",
          "type": "uint256"
        },
        {
          "internalType": "address",
          "name": "_projectId",
          "type": "address"
        }
      ],
      "stateMutability": "nonpayable",
      "type": "constructor"
    },
    {
      "inputs": [],
      "name": "assetsLink",
      "outputs": [
        {
          "internalType": "string",
          "name": "",
          "type": "string"
        }
      ],
      "stateMutability": "view",
      "type": "function"
    },
    {
      "inputs": [],
      "name": "codeLink",
      "outputs": [
        {
          "internalType": "string",
          "name": "",
          "type": "string"
        }
      ],
      "stateMutability": "view",
      "type": "function"
    },
    {
      "inputs": [],
      "name": "comments",
      "outputs": [
        {
          "internalType": "string",
          "name": "",
          "type": "string"
        }
      ],
      "stateMutability": "view",
      "type": "function"
    },
    {
      "inputs": [],
      "name": "escrowactivated",
      "outputs": [
        {
          "internalType": "bool",
          "name": "",
          "type": "bool"
        }
      ],
      "stateMutability": "view",
      "type": "function"
    },
    {
      "inputs": [],
      "name": "freelancer",
      "outputs": [
        {
          "internalType": "address",
          "name": "",
          "type": "address"
        }
      ],
      "stateMutability": "view",
      "type": "function"
    },
    {
      "inputs": [],
      "name": "freelancerStake",
      "outputs": [
        {
          "internalType": "uint256",
          "name": "",
          "type": "uint256"
        }
      ],
      "stateMutability": "view",
      "type": "function"
    },
    {
      "inputs": [],
      "name": "freelancerStaked",
      "outputs": [
        {
          "internalType": "bool",
          "name": "",
          "type": "bool"
        }
      ],
      "stateMutability": "view",
      "type": "function"
    },
    {
      "inputs": [],
      "name": "funds_released",
      "outputs": [
        {
          "internalType": "bool",
          "name": "",
          "type": "bool"
        }
      ],
      "stateMutability": "view",
      "type": "function"
    },
    {
      "inputs": [],
      "name": "projectId",
      "outputs": [
        {
          "internalType": "address",
          "name": "",
          "type": "address"
        }
      ],
      "stateMutability": "view",
      "type": "function"
    },
    {
      "inputs": [],
      "name": "projectSubmitted",
      "outputs": [
        {
          "internalType": "bool",
          "name": "",
          "type": "bool"
        }
      ],
      "stateMutability": "view",
      "type": "function"
    },
    {
      "inputs": [],
      "name": "projectemployer",
      "outputs": [
        {
          "internalType": "address",
          "name": "",
          "type": "address"
        }
      ],
      "stateMutability": "view",
      "type": "function"
    },
    {
      "inputs": [],
      "name": "projectemployerStake",
      "outputs": [
        {
          "internalType": "uint256",
          "name": "",
          "type": "uint256"
        }
      ],
      "stateMutability": "view",
      "type": "function"
    },
    {
      "inputs": [],
      "name": "projectemployerStaked",
      "outputs": [
        {
          "internalType": "bool",
          "name": "",
          "type": "bool"
        }
      ],
      "stateMutability": "view",
      "type": "function"
    },
    {
      "inputs": [],
      "name": "releaseFunds",
      "outputs": [],
      "stateMutability": "nonpayable",
      "type": "function"
    },
    {
      "inputs": [],
      "name": "stakeFreelancer",
      "outputs": [],
      "stateMutability": "nonpayable",
      "type": "function"
    },
    {
      "inputs": [
        {
          "internalType": "string",
          "name": "_codeLink",
          "type": "string"
        },
        {
          "internalType": "string",
          "name": "_assetsLink",
          "type": "string"
        },
        {
          "internalType": "string",
          "name": "_comments",
          "type": "string"
        }
      ],
      "name": "submitProject",
      "outputs": [],
      "stateMutability": "nonpayable",
      "type": "function"
    }
  ],
  "bytecode": "0x60806040523480156200001157600080fd5b506040516200126438038062001264833981810160405281019062000037919062000152565b336000806101000a81548173ffffffffffffffffffffffffffffffffffffffff021916908373ffffffffffffffffffffffffffffffffffffffff16021790555082600160006101000a81548173ffffffffffffffffffffffffffffffffffffffff021916908373ffffffffffffffffffffffffffffffffffffffff1602179055508160028190555080600860006101000a81548173ffffffffffffffffffffffffffffffffffffffff021916908373ffffffffffffffffffffffffffffffffffffffff1602179055506001600460026101000a81548160ff02191690831515021790555050505062000225565b6000815190506200013581620001f1565b92915050565b6000815190506200014c816200020b565b92915050565b6000806000606084860312156200016e576200016d620001ec565b5b60006200017e8682870162000124565b935050602062000191868287016200013b565b9250506040620001a48682870162000124565b9150509250925092565b6000620001bb82620001c2565b9050919050565b600073ffffffffffffffffffffffffffffffffffffffff82169050919050565b6000819050919050565b600080fd5b620001fc81620001ae565b81146200020857600080fd5b50565b6200021681620001e2565b81146200022257600080fd5b50565b61102f80620002356000396000f3fe608060405234801561001057600080fd5b50600436106101005760003560e01c8063a26cc60511610097578063c07f24b811610066578063c07f24b814610243578063c1a7387b14610261578063cb43650b1461027f578063fd7e9aed1461029d57610100565b8063a26cc605146101cd578063a37dda2c146101e9578063a628b57814610207578063bc6a48aa1461022557610100565b80633fafa127116100d35780633fafa1271461017d57806369d895751461019b57806398970f8f146101a55780639eb0fd4c146101c357610100565b80630597b76c1461010557806319668fee1461012357806325c843b914610141578063268f44721461015f575b600080fd5b61010d6102bb565b60405161011a9190610bba565b60405180910390f35b61012b6102cc565b6040516101389190610bba565b60405180910390f35b6101496102df565b6040516101569190610bd5565b60405180910390f35b61016761036d565b6040516101749190610bba565b60405180910390f35b610185610380565b6040516101929190610b9f565b60405180910390f35b6101a36103a6565b005b6101ad610462565b6040516101ba9190610bd5565b60405180910390f35b6101cb6104f0565b005b6101e760048036038101906101e291906109e3565b6105ed565b005b6101f16107c6565b6040516101fe9190610b9f565b60405180910390f35b61020f6107ec565b60405161021c9190610c97565b60405180910390f35b61022d6107f2565b60405161023a9190610c97565b60405180910390f35b61024b6107f8565b6040516102589190610bd5565b60405180910390f35b610269610886565b6040516102769190610bba565b60405180910390f35b610287610899565b6040516102949190610bba565b60405180910390f35b6102a56108ac565b6040516102b29190610b9f565b60405180910390f35b60048054906101000a900460ff1681565b600460019054906101000a900460ff1681565b600780546102ec90610dae565b80601f016020809104026020016040519081016040528092919081815260200182805461031890610dae565b80156103655780601f1061033a57610100808354040283529160200191610365565b820191906000526020600020905b81548152906001019060200180831161034857829003601f168201915b505050505081565b600460009054906101000a900460ff1681565b600860009054906101000a900473ffffffffffffffffffffffffffffffffffffffff1681565b600460019054906101000a900460ff166103f5576040517f08c379a00000000000000000000000000000000000000000000000000000000081526004016103ec90610c77565b60405180910390fd5b600460009054906101000a900460ff1615610445576040517f08c379a000000000000000000000000000000000000000000000000000000000815260040161043c90610bf7565b60405180910390fd5b6001600460006101000a81548160ff021916908315150217905550565b6005805461046f90610dae565b80601f016020809104026020016040519081016040528092919081815260200182805461049b90610dae565b80156104e85780601f106104bd576101008083540402835291602001916104e8565b820191906000526020600020905b8154815290600101906020018083116104cb57829003601f168201915b505050505081565b600160009054906101000a900473ffffffffffffffffffffffffffffffffffffffff1673ffffffffffffffffffffffffffffffffffffffff163373ffffffffffffffffffffffffffffffffffffffff1614610580576040517f08c379a000000000000000000000000000000000000000000000000000000000815260040161057790610c37565b60405180910390fd5b600460009054906101000a900460ff16156105d0576040517f08c379a00000000000000000000000000000000000000000000000000000000081526004016105c790610bf7565b60405180910390fd5b6001600460036101000a81548160ff021916908315150217905550565b600160009054906101000a900473ffffffffffffffffffffffffffffffffffffffff1673ffffffffffffffffffffffffffffffffffffffff163373ffffffffffffffffffffffffffffffffffffffff161461067d576040517f08c379a000000000000000000000000000000000000000000000000000000000815260040161067490610c37565b60405180910390fd5b600460009054906101000a900460ff16156106cd576040517f08c379a00000000000000000000000000000000000000000000000000000000081526004016106c490610bf7565b60405180910390fd5b600460019054906101000a900460ff161561071d576040517f08c379a000000000000000000000000000000000000000000000000000000000815260040161071490610c57565b60405180910390fd5b6000835111610761576040517f08c379a000000000000000000000000000000000000000000000000000000000815260040161075890610c17565b60405180910390fd5b82600590805190602001906107779291906108d0565b50816006908051906020019061078e9291906108d0565b5080600790805190602001906107a59291906108d0565b506001600460016101000a81548160ff021916908315150217905550505050565b600160009054906101000a900473ffffffffffffffffffffffffffffffffffffffff1681565b60025481565b60035481565b6006805461080590610dae565b80601f016020809104026020016040519081016040528092919081815260200182805461083190610dae565b801561087e5780601f106108535761010080835404028352916020019161087e565b820191906000526020600020905b81548152906001019060200180831161086157829003601f168201915b505050505081565b600460039054906101000a900460ff1681565b600460029054906101000a900460ff1681565b60008054906101000a900473ffffffffffffffffffffffffffffffffffffffff1681565b8280546108dc90610dae565b90600052602060002090601f0160209004810192826108fe5760008555610945565b82601f1061091757805160ff1916838001178555610945565b82800160010185558215610945579182015b82811115610944578251825591602001919060010190610929565b5b5090506109529190610956565b5090565b5b8082111561096f576000816000905550600101610957565b5090565b600061098661098184610cd7565b610cb2565b9050828152602081018484840111156109a2576109a1610e74565b5b6109ad848285610d6c565b509392505050565b600082601f8301126109ca576109c9610e6f565b5b81356109da848260208601610973565b91505092915050565b6000806000606084860312156109fc576109fb610e7e565b5b600084013567ffffffffffffffff811115610a1a57610a19610e79565b5b610a26868287016109b5565b935050602084013567ffffffffffffffff811115610a4757610a46610e79565b5b610a53868287016109b5565b925050604084013567ffffffffffffffff811115610a7457610a73610e79565b5b610a80868287016109b5565b9150509250925092565b610a9381610d24565b82525050565b610aa281610d36565b82525050565b6000610ab382610d08565b610abd8185610d13565b9350610acd818560208601610d7b565b610ad681610e83565b840191505092915050565b6000610aee602183610d13565b9150610af982610e94565b604082019050919050565b6000610b11601a83610d13565b9150610b1c82610ee3565b602082019050919050565b6000610b34602c83610d13565b9150610b3f82610f0c565b604082019050919050565b6000610b57602383610d13565b9150610b6282610f5b565b604082019050919050565b6000610b7a602383610d13565b9150610b8582610faa565b604082019050919050565b610b9981610d62565b82525050565b6000602082019050610bb46000830184610a8a565b92915050565b6000602082019050610bcf6000830184610a99565b92915050565b60006020820190508181036000830152610bef8184610aa8565b905092915050565b60006020820190508181036000830152610c1081610ae1565b9050919050565b60006020820190508181036000830152610c3081610b04565b9050919050565b60006020820190508181036000830152610c5081610b27565b9050919050565b60006020820190508181036000830152610c7081610b4a565b9050919050565b60006020820190508181036000830152610c9081610b6d565b9050919050565b6000602082019050610cac6000830184610b90565b92915050565b6000610cbc610ccd565b9050610cc88282610de0565b919050565b6000604051905090565b600067ffffffffffffffff821115610cf257610cf1610e40565b5b610cfb82610e83565b9050602081019050919050565b600081519050919050565b600082825260208201905092915050565b6000610d2f82610d42565b9050919050565b60008115159050919050565b600073ffffffffffffffffffffffffffffffffffffffff82169050919050565b6000819050919050565b82818337600083830152505050565b60005b83811015610d99578082015181840152602081019050610d7e565b83811115610da8576000848401525b50505050565b60006002820490506001821680610dc657607f821691505b60208210811415610dda57610dd9610e11565b5b50919050565b610de982610e83565b810181811067ffffffffffffffff82111715610e0857610e07610e40565b5b80604052505050565b7f4e487b7100000000000000000000000000000000000000000000000000000000600052602260045260246000fd5b7f4e487b7100000000000000000000000000000000000000000000000000000000600052604160045260246000fd5b600080fd5b600080fd5b600080fd5b600080fd5b6000601f19601f8301169050919050565b7f46756e6473206861766520616c7265616479206265656e2072656c656173656460008201527f2e00000000000000000000000000000000000000000000000000000000000000602082015250565b7f436f6465206c696e6b2063616e6e6f7420626520626c616e6b2e000000000000600082015250565b7f4f6e6c792074686520667265656c616e6365722063616e20706572666f726d2060008201527f7468697320616374696f6e2e0000000000000000000000000000000000000000602082015250565b7f50726f6a6563742068617320616c7265616479206265656e207375626d69747460008201527f65642e0000000000000000000000000000000000000000000000000000000000602082015250565b7f50726f6a65637420686173206e6f74206265656e207375626d6974746564207960008201527f65742e000000000000000000000000000000000000000000000000000000000060208201525056fea264697066735822122006816a9992ff38aa0cead69cf6e5cf63a6955b1a5fe4e932b69cfbb91a697a3e64736f6c63430008070033",
  "linkReferences": {},
  "deployedLinkReferences": {}
}