{
  "_format": "hh-sol-artifact-1",
  "contractName": "Gig",
  "sourceName": "contracts/Gig.sol",
  "abi": [
    {
      "inputs": [
        {
          "internalType": "string",
          "name": "_projectName",
          "type": "string"
        },
        {
          "internalType": "string",
          "name": "_projectDescription",
          "type": "string"
        },
        {
          "internalType": "string",
          "name": "_projectMetrics",
          "type": "string"
        }
      ],
      "stateMutability": "nonpayable",
      "type": "constructor"
    },
    {
      "anonymous": false,
      "inputs": [
        {
          "indexed": false,
          "internalType": "address",
          "name": "bidder",
          "type": "address"
        },
        {
          "indexed": false,
          "internalType": "uint256",
          "name": "bidAmount",
          "type": "uint256"
        }
      ],
      "name": "BidPlaced",
      "type": "event"
    },
    {
      "anonymous": false,
      "inputs": [
        {
          "indexed": false,
          "internalType": "address",
          "name": "bidder",
          "type": "address"
        },
        {
          "indexed": false,
          "internalType": "int256",
          "name": "bidAmount",
          "type": "int256"
        }
      ],
      "name": "BidRevealed",
      "type": "event"
    },
    {
      "anonymous": false,
      "inputs": [],
      "name": "BiddingPaused",
      "type": "event"
    },
    {
      "anonymous": false,
      "inputs": [],
      "name": "BiddingResumed",
      "type": "event"
    },
    {
      "anonymous": false,
      "inputs": [
        {
          "indexed": false,
          "internalType": "address",
          "name": "winner",
          "type": "address"
        },
        {
          "indexed": false,
          "internalType": "int256",
          "name": "winningBid",
          "type": "int256"
        }
      ],
      "name": "WinnerComputed",
      "type": "event"
    },
    {
      "inputs": [],
      "name": "biddingPaused",
      "outputs": [
        {
          "internalType": "bool",
          "name": "",
          "type": "bool"
        }
      ],
      "stateMutability": "view",
      "type": "function"
    },
    {
      "inputs": [
        {
          "internalType": "address",
          "name": "",
          "type": "address"
        }
      ],
      "name": "bids",
      "outputs": [
        {
          "internalType": "int256",
          "name": "",
          "type": "int256"
        }
      ],
      "stateMutability": "view",
      "type": "function"
    },
    {
      "inputs": [],
      "name": "computeWinner",
      "outputs": [],
      "stateMutability": "nonpayable",
      "type": "function"
    },
    {
      "inputs": [],
      "name": "employer",
      "outputs": [
        {
          "internalType": "address",
          "name": "",
          "type": "address"
        }
      ],
      "stateMutability": "view",
      "type": "function"
    },
    {
      "inputs": [
        {
          "internalType": "address",
          "name": "",
          "type": "address"
        }
      ],
      "name": "encryptedBids",
      "outputs": [
        {
          "internalType": "string",
          "name": "",
          "type": "string"
        }
      ],
      "stateMutability": "view",
      "type": "function"
    },
    {
      "inputs": [],
      "name": "escrowAddress",
      "outputs": [
        {
          "internalType": "address",
          "name": "",
          "type": "address"
        }
      ],
      "stateMutability": "view",
      "type": "function"
    },
    {
      "inputs": [],
      "name": "getNumBidsPlaced",
      "outputs": [
        {
          "internalType": "uint256",
          "name": "",
          "type": "uint256"
        }
      ],
      "stateMutability": "view",
      "type": "function"
    },
    {
      "inputs": [
        {
          "internalType": "address",
          "name": "bidder",
          "type": "address"
        }
      ],
      "name": "hasPlacedBid",
      "outputs": [
        {
          "internalType": "bool",
          "name": "",
          "type": "bool"
        }
      ],
      "stateMutability": "view",
      "type": "function"
    },
    {
      "inputs": [
        {
          "internalType": "string",
          "name": "encryptedBid",
          "type": "string"
        }
      ],
      "name": "placeBid",
      "outputs": [],
      "stateMutability": "payable",
      "type": "function"
    },
    {
      "inputs": [],
      "name": "projectDescription",
      "outputs": [
        {
          "internalType": "string",
          "name": "",
          "type": "string"
        }
      ],
      "stateMutability": "view",
      "type": "function"
    },
    {
      "inputs": [],
      "name": "projectMetrics",
      "outputs": [
        {
          "internalType": "string",
          "name": "",
          "type": "string"
        }
      ],
      "stateMutability": "view",
      "type": "function"
    },
    {
      "inputs": [],
      "name": "projectName",
      "outputs": [
        {
          "internalType": "string",
          "name": "",
          "type": "string"
        }
      ],
      "stateMutability": "view",
      "type": "function"
    },
    {
      "inputs": [
        {
          "internalType": "int256",
          "name": "bidAmount",
          "type": "int256"
        }
      ],
      "name": "revealBid",
      "outputs": [],
      "stateMutability": "nonpayable",
      "type": "function"
    },
    {
      "inputs": [
        {
          "internalType": "address",
          "name": "_escrowAddress",
          "type": "address"
        }
      ],
      "name": "setEscrowAddress",
      "outputs": [],
      "stateMutability": "nonpayable",
      "type": "function"
    },
    {
      "inputs": [],
      "name": "winner",
      "outputs": [
        {
          "internalType": "address",
          "name": "",
          "type": "address"
        }
      ],
      "stateMutability": "view",
      "type": "function"
    },
    {
      "inputs": [],
      "name": "winnerCalculated",
      "outputs": [
        {
          "internalType": "bool",
          "name": "",
          "type": "bool"
        }
      ],
      "stateMutability": "view",
      "type": "function"
    },
    {
      "inputs": [],
      "name": "winningBid",
      "outputs": [
        {
          "internalType": "int256",
          "name": "",
          "type": "int256"
        }
      ],
      "stateMutability": "view",
      "type": "function"
    }
  ],
  "bytecode": "0x60806040523480156200001157600080fd5b50604051620018153803806200181583398181016040528101906200003791906200022f565b336000806101000a81548173ffffffffffffffffffffffffffffffffffffffff021916908373ffffffffffffffffffffffffffffffffffffffff16021790555082600390805190602001906200008f92919062000101565b508160049080519060200190620000a892919062000101565b508060059080519060200190620000c192919062000101565b506000600960006101000a81548160ff0219169083151502179055506000600960016101000a81548160ff0219169083151502179055505050506200046c565b8280546200010f906200037d565b90600052602060002090601f0160209004810192826200013357600085556200017f565b82601f106200014e57805160ff19168380011785556200017f565b828001600101855582156200017f579182015b828111156200017e57825182559160200191906001019062000161565b5b5090506200018e919062000192565b5090565b5b80821115620001ad57600081600090555060010162000193565b5090565b6000620001c8620001c28462000311565b620002e8565b905082815260208101848484011115620001e757620001e66200044c565b5b620001f484828562000347565b509392505050565b600082601f83011262000214576200021362000447565b5b815162000226848260208601620001b1565b91505092915050565b6000806000606084860312156200024b576200024a62000456565b5b600084015167ffffffffffffffff8111156200026c576200026b62000451565b5b6200027a86828701620001fc565b935050602084015167ffffffffffffffff8111156200029e576200029d62000451565b5b620002ac86828701620001fc565b925050604084015167ffffffffffffffff811115620002d057620002cf62000451565b5b620002de86828701620001fc565b9150509250925092565b6000620002f462000307565b9050620003028282620003b3565b919050565b6000604051905090565b600067ffffffffffffffff8211156200032f576200032e62000418565b5b6200033a826200045b565b9050602081019050919050565b60005b83811015620003675780820151818401526020810190506200034a565b8381111562000377576000848401525b50505050565b600060028204905060018216806200039657607f821691505b60208210811415620003ad57620003ac620003e9565b5b50919050565b620003be826200045b565b810181811067ffffffffffffffff82111715620003e057620003df62000418565b5b80604052505050565b7f4e487b7100000000000000000000000000000000000000000000000000000000600052602260045260246000fd5b7f4e487b7100000000000000000000000000000000000000000000000000000000600052604160045260246000fd5b600080fd5b600080fd5b600080fd5b600080fd5b6000601f19601f8301169050919050565b611399806200047c6000396000f3fe6080604052600436106100fe5760003560e01c80638cf8043811610095578063d893b6d611610064578063d893b6d614610327578063ddeb63b514610352578063dfbf53ae1461037b578063e967e60c146103a6578063f896a376146103c2576100fe565b80638cf804381461028f5780639a33e300146102ba5780639d9d3b2d146102e5578063ae200e79146102fc576100fe565b806318874da8116100d157806318874da8146101d35780634c396d3f146101fc57806362ea82db14610227578063755f047b14610264576100fe565b806306e6386f146101035780630849f31d146101405780630d5defa41461016b5780630f3f02b214610196575b600080fd5b34801561010f57600080fd5b5061012a60048036038101906101259190610dac565b6103ed565b6040516101379190610f77565b60405180910390f35b34801561014c57600080fd5b50610155610444565b6040516101629190610f77565b60405180910390f35b34801561017757600080fd5b50610180610457565b60405161018d9190610f0a565b60405180910390f35b3480156101a257600080fd5b506101bd60048036038101906101b89190610dac565b61047d565b6040516101ca9190610fad565b60405180910390f35b3480156101df57600080fd5b506101fa60048036038101906101f59190610dd9565b61051d565b005b34801561020857600080fd5b50610211610656565b60405161021e9190610fad565b60405180910390f35b34801561023357600080fd5b5061024e60048036038101906102499190610dac565b6106e4565b60405161025b9190610f92565b60405180910390f35b34801561027057600080fd5b506102796106fc565b6040516102869190610fad565b60405180910390f35b34801561029b57600080fd5b506102a461078a565b6040516102b19190610f92565b60405180910390f35b3480156102c657600080fd5b506102cf610790565b6040516102dc9190610fad565b60405180910390f35b3480156102f157600080fd5b506102fa61081e565b005b34801561030857600080fd5b50610311610a4d565b60405161031e9190610f0a565b60405180910390f35b34801561033357600080fd5b5061033c610a71565b6040516103499190610f77565b60405180910390f35b34801561035e57600080fd5b5061037960048036038101906103749190610dac565b610a84565b005b34801561038757600080fd5b50610390610b56565b60405161039d9190610f0a565b60405180910390f35b6103c060048036038101906103bb9190610e06565b610b7c565b005b3480156103ce57600080fd5b506103d7610c62565b6040516103e4919061100f565b60405180910390f35b600080600660008473ffffffffffffffffffffffffffffffffffffffff1673ffffffffffffffffffffffffffffffffffffffff168152602001908152602001600020805461043a90611130565b9050119050919050565b600960009054906101000a900460ff1681565b600960029054906101000a900473ffffffffffffffffffffffffffffffffffffffff1681565b6006602052806000526040600020600091509050805461049c90611130565b80601f01602080910402602001604051908101604052809291908181526020018280546104c890611130565b80156105155780601f106104ea57610100808354040283529160200191610515565b820191906000526020600020905b8154815290600101906020018083116104f857829003601f168201915b505050505081565b60001515600960009054906101000a900460ff16151514610573576040517f08c379a000000000000000000000000000000000000000000000000000000000815260040161056a90610fcf565b60405180910390fd5b80600760003373ffffffffffffffffffffffffffffffffffffffff1673ffffffffffffffffffffffffffffffffffffffff168152602001908152602001600020819055506008339080600181540180825580915050600190039060005260206000200160009091909190916101000a81548173ffffffffffffffffffffffffffffffffffffffff021916908373ffffffffffffffffffffffffffffffffffffffff1602179055507feff79c505d5e7b944e779e0e4dfaeca7eb1f161aaee4fc533691963ec86e70a5338260405161064b929190610f25565b60405180910390a150565b6005805461066390611130565b80601f016020809104026020016040519081016040528092919081815260200182805461068f90611130565b80156106dc5780601f106106b1576101008083540402835291602001916106dc565b820191906000526020600020905b8154815290600101906020018083116106bf57829003601f168201915b505050505081565b60076020528060005260406000206000915090505481565b6004805461070990611130565b80601f016020809104026020016040519081016040528092919081815260200182805461073590611130565b80156107825780601f1061075757610100808354040283529160200191610782565b820191906000526020600020905b81548152906001019060200180831161076557829003601f168201915b505050505081565b60025481565b6003805461079d90611130565b80601f01602080910402602001604051908101604052809291908181526020018280546107c990611130565b80156108165780601f106107eb57610100808354040283529160200191610816565b820191906000526020600020905b8154815290600101906020018083116107f957829003601f168201915b505050505081565b60008054906101000a900473ffffffffffffffffffffffffffffffffffffffff1673ffffffffffffffffffffffffffffffffffffffff163373ffffffffffffffffffffffffffffffffffffffff16146108ac576040517f08c379a00000000000000000000000000000000000000000000000000000000081526004016108a390610fef565b60405180910390fd5b60007f7fffffffffffffffffffffffffffffffffffffffffffffffffffffffffffffff9050600080600090505b600880549050811015610991576000600882815481106108fc576108fb61123a565b5b9060005260206000200160009054906101000a900473ffffffffffffffffffffffffffffffffffffffff1690506000600760008373ffffffffffffffffffffffffffffffffffffffff1673ffffffffffffffffffffffffffffffffffffffff1681526020019081526020016000205490508481121561097c578094508193505b5050808061098990611193565b9150506108d9565b5080600160006101000a81548173ffffffffffffffffffffffffffffffffffffffff021916908373ffffffffffffffffffffffffffffffffffffffff160217905550816002819055506001600960016101000a81548160ff0219169083151502179055506001600960006101000a81548160ff0219169083151502179055507fb1ac22378f03bbcd6605ff5bcb60d231d67fb6ac00a4276b16f8bc25245d15778183604051610a41929190610f25565b60405180910390a15050565b60008054906101000a900473ffffffffffffffffffffffffffffffffffffffff1681565b600960019054906101000a900460ff1681565b60008054906101000a900473ffffffffffffffffffffffffffffffffffffffff1673ffffffffffffffffffffffffffffffffffffffff163373ffffffffffffffffffffffffffffffffffffffff1614610b12576040517f08c379a0000000000000000000000000000000000000000000000000000000008152600401610b0990610fef565b60405180910390fd5b80600960026101000a81548173ffffffffffffffffffffffffffffffffffffffff021916908373ffffffffffffffffffffffffffffffffffffffff16021790555050565b600160009054906101000a900473ffffffffffffffffffffffffffffffffffffffff1681565b60001515600960009054906101000a900460ff16151514610bd2576040517f08c379a0000000000000000000000000000000000000000000000000000000008152600401610bc990610fcf565b60405180910390fd5b80600660003373ffffffffffffffffffffffffffffffffffffffff1673ffffffffffffffffffffffffffffffffffffffff1681526020019081526020016000209080519060200190610c25929190610c6f565b507f3fabff0a9c3ecd6814702e247fa9733e5d0aa69e3a38590f92cb18f623a2254d3334604051610c57929190610f4e565b60405180910390a150565b6000600880549050905090565b828054610c7b90611130565b90600052602060002090601f016020900481019282610c9d5760008555610ce4565b82601f10610cb657805160ff1916838001178555610ce4565b82800160010185558215610ce4579182015b82811115610ce3578251825591602001919060010190610cc8565b5b509050610cf19190610cf5565b5090565b5b80821115610d0e576000816000905550600101610cf6565b5090565b6000610d25610d208461104f565b61102a565b905082815260208101848484011115610d4157610d4061129d565b5b610d4c8482856110ee565b509392505050565b600081359050610d6381611335565b92915050565b600081359050610d788161134c565b92915050565b600082601f830112610d9357610d92611298565b5b8135610da3848260208601610d12565b91505092915050565b600060208284031215610dc257610dc16112a7565b5b6000610dd084828501610d54565b91505092915050565b600060208284031215610def57610dee6112a7565b5b6000610dfd84828501610d69565b91505092915050565b600060208284031215610e1c57610e1b6112a7565b5b600082013567ffffffffffffffff811115610e3a57610e396112a2565b5b610e4684828501610d7e565b91505092915050565b610e588161109c565b82525050565b610e67816110ae565b82525050565b610e76816110ba565b82525050565b6000610e8782611080565b610e91818561108b565b9350610ea18185602086016110fd565b610eaa816112ac565b840191505092915050565b6000610ec2601b8361108b565b9150610ecd826112bd565b602082019050919050565b6000610ee560248361108b565b9150610ef0826112e6565b604082019050919050565b610f04816110e4565b82525050565b6000602082019050610f1f6000830184610e4f565b92915050565b6000604082019050610f3a6000830185610e4f565b610f476020830184610e6d565b9392505050565b6000604082019050610f636000830185610e4f565b610f706020830184610efb565b9392505050565b6000602082019050610f8c6000830184610e5e565b92915050565b6000602082019050610fa76000830184610e6d565b92915050565b60006020820190508181036000830152610fc78184610e7c565b905092915050565b60006020820190508181036000830152610fe881610eb5565b9050919050565b6000602082019050818103600083015261100881610ed8565b9050919050565b60006020820190506110246000830184610efb565b92915050565b6000611034611045565b90506110408282611162565b919050565b6000604051905090565b600067ffffffffffffffff82111561106a57611069611269565b5b611073826112ac565b9050602081019050919050565b600081519050919050565b600082825260208201905092915050565b60006110a7826110c4565b9050919050565b60008115159050919050565b6000819050919050565b600073ffffffffffffffffffffffffffffffffffffffff82169050919050565b6000819050919050565b82818337600083830152505050565b60005b8381101561111b578082015181840152602081019050611100565b8381111561112a576000848401525b50505050565b6000600282049050600182168061114857607f821691505b6020821081141561115c5761115b61120b565b5b50919050565b61116b826112ac565b810181811067ffffffffffffffff8211171561118a57611189611269565b5b80604052505050565b600061119e826110e4565b91507fffffffffffffffffffffffffffffffffffffffffffffffffffffffffffffffff8214156111d1576111d06111dc565b5b600182019050919050565b7f4e487b7100000000000000000000000000000000000000000000000000000000600052601160045260246000fd5b7f4e487b7100000000000000000000000000000000000000000000000000000000600052602260045260246000fd5b7f4e487b7100000000000000000000000000000000000000000000000000000000600052603260045260246000fd5b7f4e487b7100000000000000000000000000000000000000000000000000000000600052604160045260246000fd5b600080fd5b600080fd5b600080fd5b600080fd5b6000601f19601f8301169050919050565b7f42696464696e672069732063757272656e746c79207061757365640000000000600082015250565b7f4f6e6c7920656d706c6f7965722063616e2063616c6c20746869732066756e6360008201527f74696f6e00000000000000000000000000000000000000000000000000000000602082015250565b61133e8161109c565b811461134957600080fd5b50565b611355816110ba565b811461136057600080fd5b5056fea26469706673582212207c241eb4681aa43ba740164fd6a9ce765703bedcfecb2225e8f8a075b9bee87064736f6c63430008070033",
  "linkReferences": {},
  "deployedLinkReferences": {}
}