{
  "_format": "hh-sol-artifact-1",
  "contractName": "Master",
  "sourceName": "contracts/master.sol",
  "abi": [
    {
      "inputs": [
        {
          "internalType": "address",
          "name": "_disputeHandler",
          "type": "address"
        }
      ],
      "name": "addDisputeHandler",
      "outputs": [],
      "stateMutability": "nonpayable",
      "type": "function"
    },
    {
      "inputs": [
        {
          "internalType": "address",
          "name": "_freelancer",
          "type": "address"
        },
        {
          "internalType": "address",
          "name": "_project",
          "type": "address"
        }
      ],
      "name": "addProjectFreelancer",
      "outputs": [],
      "stateMutability": "nonpayable",
      "type": "function"
    },
    {
      "inputs": [
        {
          "internalType": "address",
          "name": "_employer",
          "type": "address"
        },
        {
          "internalType": "address",
          "name": "_project",
          "type": "address"
        }
      ],
      "name": "addProjectemployer",
      "outputs": [],
      "stateMutability": "nonpayable",
      "type": "function"
    },
    {
      "inputs": [
        {
          "internalType": "uint256",
          "name": "",
          "type": "uint256"
        }
      ],
      "name": "allFreelancers",
      "outputs": [
        {
          "internalType": "address",
          "name": "",
          "type": "address"
        }
      ],
      "stateMutability": "view",
      "type": "function"
    },
    {
      "inputs": [
        {
          "internalType": "uint256",
          "name": "",
          "type": "uint256"
        }
      ],
      "name": "allProjects",
      "outputs": [
        {
          "internalType": "address",
          "name": "",
          "type": "address"
        }
      ],
      "stateMutability": "view",
      "type": "function"
    },
    {
      "inputs": [
        {
          "internalType": "uint256",
          "name": "",
          "type": "uint256"
        }
      ],
      "name": "allemployers",
      "outputs": [
        {
          "internalType": "address",
          "name": "",
          "type": "address"
        }
      ],
      "stateMutability": "view",
      "type": "function"
    },
    {
      "inputs": [
        {
          "internalType": "uint256",
          "name": "",
          "type": "uint256"
        }
      ],
      "name": "disputeHandlers",
      "outputs": [
        {
          "internalType": "address",
          "name": "",
          "type": "address"
        }
      ],
      "stateMutability": "view",
      "type": "function"
    },
    {
      "inputs": [
        {
          "internalType": "address",
          "name": "",
          "type": "address"
        },
        {
          "internalType": "uint256",
          "name": "",
          "type": "uint256"
        }
      ],
      "name": "employerToProjects",
      "outputs": [
        {
          "internalType": "address",
          "name": "",
          "type": "address"
        }
      ],
      "stateMutability": "view",
      "type": "function"
    },
    {
      "inputs": [
        {
          "internalType": "address",
          "name": "",
          "type": "address"
        },
        {
          "internalType": "uint256",
          "name": "",
          "type": "uint256"
        }
      ],
      "name": "freelancerToProjects",
      "outputs": [
        {
          "internalType": "address",
          "name": "",
          "type": "address"
        }
      ],
      "stateMutability": "view",
      "type": "function"
    },
    {
      "inputs": [],
      "name": "getAllProjects",
      "outputs": [
        {
          "internalType": "address[]",
          "name": "",
          "type": "address[]"
        }
      ],
      "stateMutability": "view",
      "type": "function"
    },
    {
      "inputs": [],
      "name": "getDisputeHandlers",
      "outputs": [
        {
          "internalType": "address[]",
          "name": "",
          "type": "address[]"
        }
      ],
      "stateMutability": "view",
      "type": "function"
    },
    {
      "inputs": [
        {
          "internalType": "address",
          "name": "_freelancer",
          "type": "address"
        }
      ],
      "name": "getProjectsByFreelancer",
      "outputs": [
        {
          "internalType": "address[]",
          "name": "",
          "type": "address[]"
        }
      ],
      "stateMutability": "view",
      "type": "function"
    },
    {
      "inputs": [
        {
          "internalType": "address",
          "name": "_employer",
          "type": "address"
        }
      ],
      "name": "getProjectsByemployer",
      "outputs": [
        {
          "internalType": "address[]",
          "name": "",
          "type": "address[]"
        }
      ],
      "stateMutability": "view",
      "type": "function"
    }
  ],
  "bytecode": "0x608060405234801561001057600080fd5b50610edb806100206000396000f3fe608060405234801561001057600080fd5b50600436106100cf5760003560e01c80635fa8c2bc1161008c5780638a167281116100665780638a1672811461024a57806393865f7f14610266578063940e44ce14610296578063ded14dd1146102c6576100cf565b80635fa8c2bc146101e0578063693b49991461021057806380d038291461022c576100cf565b80631c21d457146100d45780632eea75891461010457806344f338ea1461013457806348cadb3114610164578063505ac6a51461019457806353b3194c146101b0575b600080fd5b6100ee60048036038101906100e99190610bab565b6102e4565b6040516100fb9190610d34565b60405180910390f35b61011e60048036038101906101199190610c58565b6103b1565b60405161012b9190610d19565b60405180910390f35b61014e60048036038101906101499190610bab565b6103f0565b60405161015b9190610d34565b60405180910390f35b61017e60048036038101906101799190610c58565b6104bc565b60405161018b9190610d19565b60405180910390f35b6101ae60048036038101906101a99190610bab565b6104fb565b005b6101ca60048036038101906101c59190610c58565b610561565b6040516101d79190610d19565b60405180910390f35b6101fa60048036038101906101f59190610c58565b6105a0565b6040516102079190610d19565b60405180910390f35b61022a60048036038101906102259190610bd8565b6105df565b005b610234610756565b6040516102419190610d34565b60405180910390f35b610264600480360381019061025f9190610bd8565b6107e4565b005b610280600480360381019061027b9190610c18565b6108f9565b60405161028d9190610d19565b60405180910390f35b6102b060048036038101906102ab9190610c18565b610947565b6040516102bd9190610d19565b60405180910390f35b6102ce610995565b6040516102db9190610d34565b60405180910390f35b6060600160008373ffffffffffffffffffffffffffffffffffffffff1673ffffffffffffffffffffffffffffffffffffffff1681526020019081526020016000208054806020026020016040519081016040528092919081815260200182805480156103a557602002820191906000526020600020905b8160009054906101000a900473ffffffffffffffffffffffffffffffffffffffff1673ffffffffffffffffffffffffffffffffffffffff168152602001906001019080831161035b575b50505050509050919050565b600581815481106103c157600080fd5b906000526020600020016000915054906101000a900473ffffffffffffffffffffffffffffffffffffffff1681565b60606000808373ffffffffffffffffffffffffffffffffffffffff1673ffffffffffffffffffffffffffffffffffffffff1681526020019081526020016000208054806020026020016040519081016040528092919081815260200182805480156104b057602002820191906000526020600020905b8160009054906101000a900473ffffffffffffffffffffffffffffffffffffffff1673ffffffffffffffffffffffffffffffffffffffff1681526020019060010190808311610466575b50505050509050919050565b600281815481106104cc57600080fd5b906000526020600020016000915054906101000a900473ffffffffffffffffffffffffffffffffffffffff1681565b6005819080600181540180825580915050600190039060005260206000200160009091909190916101000a81548173ffffffffffffffffffffffffffffffffffffffff021916908373ffffffffffffffffffffffffffffffffffffffff16021790555050565b6004818154811061057157600080fd5b906000526020600020016000915054906101000a900473ffffffffffffffffffffffffffffffffffffffff1681565b600381815481106105b057600080fd5b906000526020600020016000915054906101000a900473ffffffffffffffffffffffffffffffffffffffff1681565b6000808373ffffffffffffffffffffffffffffffffffffffff1673ffffffffffffffffffffffffffffffffffffffff168152602001908152602001600020819080600181540180825580915050600190039060005260206000200160009091909190916101000a81548173ffffffffffffffffffffffffffffffffffffffff021916908373ffffffffffffffffffffffffffffffffffffffff16021790555061068782610a23565b6106ef576002829080600181540180825580915050600190039060005260206000200160009091909190916101000a81548173ffffffffffffffffffffffffffffffffffffffff021916908373ffffffffffffffffffffffffffffffffffffffff1602179055505b6004819080600181540180825580915050600190039060005260206000200160009091909190916101000a81548173ffffffffffffffffffffffffffffffffffffffff021916908373ffffffffffffffffffffffffffffffffffffffff1602179055505050565b606060048054806020026020016040519081016040528092919081815260200182805480156107da57602002820191906000526020600020905b8160009054906101000a900473ffffffffffffffffffffffffffffffffffffffff1673ffffffffffffffffffffffffffffffffffffffff1681526020019060010190808311610790575b5050505050905090565b600160008373ffffffffffffffffffffffffffffffffffffffff1673ffffffffffffffffffffffffffffffffffffffff168152602001908152602001600020819080600181540180825580915050600190039060005260206000200160009091909190916101000a81548173ffffffffffffffffffffffffffffffffffffffff021916908373ffffffffffffffffffffffffffffffffffffffff16021790555061088d82610ad2565b6108f5576003829080600181540180825580915050600190039060005260206000200160009091909190916101000a81548173ffffffffffffffffffffffffffffffffffffffff021916908373ffffffffffffffffffffffffffffffffffffffff1602179055505b5050565b6000602052816000526040600020818154811061091557600080fd5b906000526020600020016000915091509054906101000a900473ffffffffffffffffffffffffffffffffffffffff1681565b6001602052816000526040600020818154811061096357600080fd5b906000526020600020016000915091509054906101000a900473ffffffffffffffffffffffffffffffffffffffff1681565b60606005805480602002602001604051908101604052809291908181526020018280548015610a1957602002820191906000526020600020905b8160009054906101000a900473ffffffffffffffffffffffffffffffffffffffff1673ffffffffffffffffffffffffffffffffffffffff16815260200190600101908083116109cf575b5050505050905090565b600080600090505b600280549050811015610ac7578273ffffffffffffffffffffffffffffffffffffffff1660028281548110610a6357610a62610e43565b5b9060005260206000200160009054906101000a900473ffffffffffffffffffffffffffffffffffffffff1673ffffffffffffffffffffffffffffffffffffffff161415610ab4576001915050610acd565b8080610abf90610dcb565b915050610a2b565b50600090505b919050565b600080600090505b600380549050811015610b76578273ffffffffffffffffffffffffffffffffffffffff1660038281548110610b1257610b11610e43565b5b9060005260206000200160009054906101000a900473ffffffffffffffffffffffffffffffffffffffff1673ffffffffffffffffffffffffffffffffffffffff161415610b63576001915050610b7c565b8080610b6e90610dcb565b915050610ada565b50600090505b919050565b600081359050610b9081610e77565b92915050565b600081359050610ba581610e8e565b92915050565b600060208284031215610bc157610bc0610e72565b5b6000610bcf84828501610b81565b91505092915050565b60008060408385031215610bef57610bee610e72565b5b6000610bfd85828601610b81565b9250506020610c0e85828601610b81565b9150509250929050565b60008060408385031215610c2f57610c2e610e72565b5b6000610c3d85828601610b81565b9250506020610c4e85828601610b96565b9150509250929050565b600060208284031215610c6e57610c6d610e72565b5b6000610c7c84828501610b96565b91505092915050565b6000610c918383610c9d565b60208301905092915050565b610ca681610d8f565b82525050565b610cb581610d8f565b82525050565b6000610cc682610d66565b610cd08185610d7e565b9350610cdb83610d56565b8060005b83811015610d0c578151610cf38882610c85565b9750610cfe83610d71565b925050600181019050610cdf565b5085935050505092915050565b6000602082019050610d2e6000830184610cac565b92915050565b60006020820190508181036000830152610d4e8184610cbb565b905092915050565b6000819050602082019050919050565b600081519050919050565b6000602082019050919050565b600082825260208201905092915050565b6000610d9a82610da1565b9050919050565b600073ffffffffffffffffffffffffffffffffffffffff82169050919050565b6000819050919050565b6000610dd682610dc1565b91507fffffffffffffffffffffffffffffffffffffffffffffffffffffffffffffffff821415610e0957610e08610e14565b5b600182019050919050565b7f4e487b7100000000000000000000000000000000000000000000000000000000600052601160045260246000fd5b7f4e487b7100000000000000000000000000000000000000000000000000000000600052603260045260246000fd5b600080fd5b610e8081610d8f565b8114610e8b57600080fd5b50565b610e9781610dc1565b8114610ea257600080fd5b5056fea264697066735822122087046ba2dac963bcc740b8b455f84456c01f4a41f1ac6c0292d6b122b971c7a964736f6c63430008070033",
  "linkReferences": {},
  "deployedLinkReferences": {}
}